:020000040800F2
:100000006004002001010008F5040008ED04000868
:10001000F104000881030008DB1200080000000062
:10002000000000000000000000000000C90A0008F5
:100030008503000800000000B1090008690C0008F1
:100040001B0100081B0100081B0100081B01000820
:100050001B0100081B0100081B0100081B01000810
:100060001B0100081B0100081B0100081B01000800
:100070001B0100081B0100081B0100081B010008F0
:100080001B0100081B0100081B0100081B010008E0
:100090001B0100081B0100081B0100081B010008D0
:1000A0001B0100081B0100081B0100081B010008C0
:1000B0001B0100081B0100081B0100081B010008B0
:1000C0001B0100081B0100081B0100081B010008A0
:1000D0001B0100081B0100087D1000081B0100081F
:1000E0001B0100081B0100081B010008DFF80CD0F1
:1000F00000F034F900480047FD12000860040020B9
:100100000648804706480047FEE7FEE7FEE7FEE7B1
:10011000FEE7FEE7FEE7FEE7FEE7FEE76D0C000800
:10012000ED000008F0B480EA0102D40F4200B2EB07
:10013000410F02D20246084611464A0042D0C30D82
:10014000DDB2C1F3C752AD1A202D35DAC1F3160165
:1001500041F4000204B15242C5F1200602FA06F150
:100160002A411044B3EBD05F23D0C4B1012DA0EBE2
:10017000C35009DCF0BC4FF0004202EAC352DBB2CC
:1001800000F5000000F0BCB8400000F1807000EB0A
:10019000C350A0F1807040EAD170490009E04908DD
:1001A00041EAC071A0EBC35000F50000400800EB2D
:1001B000C350F0BC00F09BB86142012202EB410148
:1001C000001BF6E7F0BC704781F00041AAE780F021
:1001D0000040A7E780EA010210B502F000434000AA
:1001E00022D04A001FD0010E01EB1261C0F356006D
:1001F000C2F3560240F4000042F40002A0FB0220C9
:1002000000047F39140400D0401C50EA124001D48D
:100210004000491EC2B20C0604EBD010401C40083E
:10022000802A02D003E0002010BD20F00100002948
:1002300000DA0020184310BD30B480EA010202F059
:10024000004530F0004221F0004013D090B1C30DC2
:10025000D40DC2F31601C0F31600E41A41F40001F4
:1002600040F400027D34914201D3641C00E0490057
:10027000002C02DA30BC002070474FF4000000234D
:10028000914201D3891A034340084FEA4101F7D153
:1002900051B1914202D14FF0004105E002D24FF03E
:1002A000010101E06FF0010103EBC450284430BCB0
:1002B00000F01DB8C10F80EAE0700844CA07962319
:1002C000002100F01DB820F00040C10DC0F3160061
:1002D00040F400007F2901DA00207047962903DCF2
:1002E000C1F19601C840704796398840704700298F
:1002F000A8BF7047401C490008BF20F001007047AC
:1003000010B4B0FA80FC00FA0CF050EA010404BF0B
:1003100010BC704749B1CCF1200421FA04F411FA61
:100320000CF118BF012121430843A3EB0C01CB1DA5
:100330004FEA00614FEA102042BF002010BC704716
:1003400000EBC35010440029A4BF10BC7047401CF0
:10035000490008BF20F0010010BC7047064C074D53
:1003600006E0E06840F0010394E807009847103485
:10037000AC42F6D3FFF7BEFE6415000884150008F2
:1003800000BFFEE7704700B5034603E04FF47A7004
:1003900000F005F8181EA3F10103F7D100BD00EB32
:1003A000C001C9004FF0E022516100219161052197
:1003B000116100BF4FF0E021096901F4803100298B
:1003C000F8D004214FF0E022116170472DE9F0418F
:1003D000024600250026002000230024002791F873
:1003E00003C00CF00F0591F803C00CF0100CBCF129
:1003F000000F03D091F802C04CEA050591F800C047
:10040000BCF1000F31D0146800202BE04FF0010C3C
:100410000CFA00F3B1F800C00CEA03069E4220D1AA
:1004200083004FF00F0C0CFA03F7BC4305FA03FCF2
:100430004CEA040491F803C0BCF1280F06D14FF038
:10044000010C0CFA00FCC2F814C00AE091F803C0D9
:10045000BCF1480F05D14FF0010C0CFA00FCC2F8BA
:1004600010C0401C0828D1D31460B1F800C0BCF102
:10047000FF0F34DD546800202EE000F1080C4FF02F
:10048000010808FA0CF3B1F800C00CEA03069E421A
:1004900021D183004FF00F0C0CFA03F7BC4305FA8F
:1004A00003FC4CEA040491F803C0BCF1280F05D109
:1004B00000F1080C08FA0CF8C2F8148091F803C097
:1004C000BCF1480F07D100F1080C4FF0010808FA01
:1004D0000CF8C2F81080401C0828CED35460BDE848
:1004E000F0810AB1016100E04161704700BFFEE7A1
:1004F00000BFFEE77047000070B5002100230F2207
:10050000C47804B3154C246804F4E064C4F5E064D2
:10051000210AC1F10403CA40447804FA03F1847843
:100520001440214309010E4C0678A155047804F0CB
:100530001F050124AC4005786D11AD0005F1E025E3
:10054000C5F8004109E0047804F01F050124AC401F
:10055000044D0678761145F8264070BD0CED00E09C
:1005600000E400E080E100E002490143024A11603A
:10057000704700000000FA050CED00E070B50024A3
:100580000EE00021204600F0E6F8002504E00020FF
:1005900000F002F9681CC5B2802DF8DB601CC4B203
:1005A000082CEEDB70BD000008B50121082000F02A
:1005B00011FA14208DF8030003208DF802004FF487
:1005C0008070ADF8000069460A48FFF7FFFE4FF45F
:1005D0000070ADF8000069460648FFF7F7FE0122FB
:1005E00011020448FFF77DFF012251020148FFF785
:1005F00078FF08BD000C014070B50546002415E0E9
:100600008020204100EA05024FF400710E48FFF7F8
:1006100068FF012211020C48FFF763FF00224FF42C
:1006200080710948FFF75DFF601CC4B2082CE7DB4E
:10063000012211020448FFF754FF00224FF4807199
:100640000148FFF74EFF70BD000C014010B50122BC
:1006500051020A48FFF745FF012211020748FFF740
:1006600040FF00224FF400710448FFF73AFF0022D8
:100670004FF480710148FFF734FF10BD000C0140BA
:1006800010B500224FF400710648FFF72AFF01223F
:1006900011020448FFF725FF012251020148FFF72C
:1006A00020FF10BD000C014070B5002406E00025BD
:1006B00000E06D1CB5F57A7FFBD3641CB4F57A7F3E
:1006C000F5D3FFF771FFAE2000F056F8D52000F00B
:1006D00053F8802000F050F8A82000F04DF83F209B
:1006E00000F04AF8D32000F047F8002000F044F86A
:1006F000402000F041F8A12000F03EF8C82000F0B2
:100700003BF8DA2000F038F8122000F035F88120AC
:1007100000F032F8CF2000F02FF8D92000F02CF8AC
:10072000F12000F029F8DB2000F026F8302000F05E
:1007300023F8A42000F020F8A62000F01DF88D205A
:1007400000F01AF8142000F017F8AF2000F014F8A9
:10075000FFF714FF70BD70B505460C4645F0B000BC
:1007600000F00AF8102141EA141000F005F804F036
:100770000F0000F001F870BD10B50446FFF766FFEA
:100780007820FFF739FF0020FFF736FF2046FFF7FC
:1007900033FFFFF775FF10BD10B50446FFF756FF96
:1007A0007820FFF729FF4020FFF726FF2046FFF7BC
:1007B00023FFFFF765FF10BD2DE9F04104460B490B
:1007C0002046FFF739FD80460949FFF703FD07463C
:1007D0000849FFF7A7FC0646FFF775FD85B22946D5
:1007E000054800F0F4FBBDE8F08100000000344350
:1007F0000000FA440000FA43002C01402DE9F041CA
:1008000004460B492046FFF717FD80460949FFF7CC
:10081000E1FC07460849FFF785FC0646FFF753FD54
:1008200085B22946054800F0D4FBBDE8F081000000
:10083000000034430000FA440000FA43002C014059
:100840002DE9F04104460B492046FFF7F5FC8046B0
:100850000949FFF7BFFC07460849FFF763FC064656
:10086000FFF731FD85B22946054800F0ACFBBDE835
:10087000F0810000000034430000FA440000FA4315
:10088000002C01402DE9F04104460B492046FFF7BA
:10089000D3FC80460949FFF79DFC07460849FFF74E
:1008A00041FC0646FFF70FFD85B22946054800F0DA
:1008B0008CFBBDE8F0810000000034430000FA44E6
:1008C0000000FA43002C014000B589B0012104204A
:1008D00000F080F818208DF823004FF47060ADF818
:1008E000200003208DF8220008A92F48FFF76EFD95
:1008F0000121C80200F06EF82C4800F002FA002036
:10090000ADF81A001020ADF8160044F61F60ADF8DF
:1009100018004720ADF8140000208DF81C0005A930
:10092000224800F059FB6020ADF804000020ADF82B
:100930000C00ADF80E000120ADF806000420ADF863
:1009400008008001ADF810000020ADF81200ADF8ED
:100950000A0001A9154800F0DBF901A9134800F0CD
:100960002DFA01A9114800F089FA01A90F4800F0F9
:10097000DFFA08210D4800F017FA08210B4800F0B3
:100980006FFA0821094800F0C9FA0821074800F069
:100990000DFB0121054800F099F90121034800F001
:1009A000A1F909B000BD000000080140002C014081
:1009B0007047000029B1064AD2690243044BDA614C
:1009C00004E0034AD2698243014BDA6170470000B8
:1009D0000010024029B1064A92690243044B9A6111
:1009E00004E0034A92698243014B9A617047000018
:1009F0000010024030B500210022002400232D4DBC
:100A00006D6805F00C0121B1042905D0082923D116
:100A100005E0294D056022E0274D05601FE0254DCA
:100A20006D6805F47012234D6D6805F4803402255D
:100A300005EB92421CB9214D554305600BE01D4D5D
:100A40006D6805F400351DB11C4D5543056002E08D
:100A5000194D5543056002E0174D056000BF00BF0A
:100A6000144D6D6805F0F0010909154D6B5C0568C2
:100A7000DD4045600F4D6D6805F4E061090A104DD9
:100A80006B5C4568DD4085600A4D6D6805F460511A
:100A9000C90A0B4D6B5C4568DD40C560054D6D684E
:100AA00005F44041890B074D6B5CC568B5FBF3F558
:100AB000056130BD0010024000127A0000093D00BF
:100AC0002C0000203C0000207047000000B587B0DB
:100AD00001214804FFF76EFF01210420FFF77AFF90
:100AE00018208DF81B000420ADF8180003208DF8A5
:100AF0001A0006A92048FFF769FC48208DF81B0062
:100B00000820ADF8180003208DF81A0006A91A482D
:100B1000FFF75CFC4FF4165002900020ADF8140073
:100B20000C20ADF812000020ADF81000ADF80E005A
:100B3000ADF80C0002A9114800F05EFB01210F483E
:100B400000F0FFFA012240F225510C4800F02FFB83
:100B50004FF4A060FFF708FD26208DF80400012067
:100B60008DF807008DF805008DF8060001A8FFF745
:100B7000C3FC07B000BD0000000801400044004075
:100B800010B500F001F810BD0CB5002001900090E8
:100B90003348006840F480303149086000BF304875
:100BA000006800F4003000900198401C019000980B
:100BB00018B90198B0F5A06FF1D12948006800F488
:100BC000003010B10120009001E00020009000985A
:100BD000012843D12348006840F0100021490860F3
:100BE0000846006820F0070008600846006840F0EA
:100BF000020008601A484068194948600846406881
:100C000048600846406840F4806048600846406894
:100C100020F47C1048600846406840F4E8104860C2
:100C20000846006840F08070086000BF0C4800680B
:100C300000F000700028F9D00948406820F0030057
:100C4000074948600846406840F00200486000BF1D
:100C50000348406800F00C000828F9D10CBD0000E2
:100C600000100240002002407047000010B51348F9
:100C7000006840F0010011490860084640681049CA
:100C800008400E494860084600680E4908400B4974
:100C900008600846006820F4802008600846406824
:100CA00020F4FE0048604FF41F008860FFF768FFE3
:100CB0004FF000600449086010BD000000100240C1
:100CC0000000FFF8FFFFF6FE08ED00E021B102880A
:100CD00042F00102028004E002884FF6FE731A40DF
:100CE0000280704731B1B0F8442042F40042A0F8CD
:100CF000442005E0B0F84420C2F30E02A0F84420DE
:100D0000704701894FF6F872114001817047000069
:100D100070B5002400220023058C4FF6FE76354086
:100D20000584028C8388048B4FF68F752C40B51E8A
:100D30002C400D882C43751E2A400D892A434D886E
:100D40002A43144DA8420BD0134DA84208D0134D8E
:100D5000A84205D0124DA84202D0124DA84213D18C
:100D60004FF6F7752A404D892A434FF6FB752A4006
:100D70008D882A434FF6FF652B404FF6FF552B40D9
:100D80008D892B43CD892B4383800483CD88858631
:100D9000028470BD002C014000340140004001403D
:100DA00000440140004801400A460021018B4FF6F3
:100DB000F7731940114301837047000070B5002498
:100DC00000220023058C4FF6EF7635400584028C17
:100DD0008388048B48F6FF752C404FF6FF452C4066
:100DE0000D884FF6FF7606EA05252C434FF6DF7592
:100DF0002A400D8906EA05152A434D8806EA05159D
:100E00002A43154DA84202D0144DA8421DD14FF6D9
:100E10007F752A404D894FF6FF7606EA05152A436D
:100E20004FF6BF752A408D8806EA05152A434FF60E
:100E3000FF352B404FF2FF752B408D8906EA850563
:100E40002B43CD8906EA85052B4383800483CD8817
:100E50000587028470BD0000002C01400034014071
:100E60000A460021018B4FF2FF7319404FF6FF73C2
:100E700003EA0223194301837047000070B5002480
:100E800000220023058C4FF6FF6635400584028C56
:100E90008388848B4FF68F752C404FF6FC752C4061
:100EA0000D882C434FF6FF552A400D894FF6FF76EB
:100EB00006EA05252A434D8806EA05252A43154DED
:100EC000A84202D0144DA8421DD14FF2FF752A400E
:100ED0004D894FF6FF7606EA05252A434FF6FF3582
:100EE0002A408D8806EA05252A434EF6FF752B40D9
:100EF0004DF6FF752B408D8906EA05152B43CD89EC
:100F000006EA05152B4383808483CD888587028478
:100F100070BD0000002C0140003401400A46002151
:100F2000818B4FF6F773194011438183704700009E
:100F300070B5002200230024058C4EF6FF76354064
:100F40000584038C8488828B48F6FF752A404FF60F
:100F5000FF452A400D884FF6FF7606EA05252A430D
:100F60004DF6FF752B400D8906EA05352B434D885C
:100F700006EA05352B430B4DA84202D00A4DA84284
:100F800008D14BF6FF752C408D894FF6FF7606EAA7
:100F900085152C4384808283CD88A0F8405003843B
:100FA00070BD0000002C0140003401400A460021C1
:100FB000818B4FF2FF7319404FF6FF7303EA022350
:100FC0001943818370478186704701877047818705
:100FD0007047A0F840107047002202881D4B9842CD
:100FE0000ED01D4B98420BD0B0F1804F08D01B4B58
:100FF000984205D01A4B984202D01A4B984204D11D
:101000004FF68F731A404B881A43174B984207D0FC
:10101000164B984204D04FF6FF431A40CB881A4330
:1010200002808B8883850B8803850A4B98420BD0FE
:10103000094B984208D00E4B984205D00D4B984270
:1010400002D00D4B984201D10B7A03860123838293
:1010500070470000002C01400034014000040040B3
:1010600000080040000C0040001000400014004048
:1010700000400140004401400048014010B540F2EA
:101080002551224800F069F801283DD11F4800F0A1
:101090001FF91F4908701F48007850B908460078AA
:1010A000A5282CD101201B49087000201A4908806E
:1010B00025E018480078012813D115480078174911
:1010C000154A128821F8120013480088401C124962
:1010D0000880084600880B2811DB02200D490870A3
:1010E0000DE00C480078022809D1094800785A28F8
:1010F00005D100200749087001200949087040F215
:101100002551024800F00EF810BD000000440040D8
:1011100028000020290000202A0000204000002094
:101120002400002010B50022002340F66A14A142DA
:1011300000D100BF0A1201249440A3B2DC43048012
:1011400010BD21B1828942F40052828104E082897B
:101150004DF6FF731A408281704770B50246002435
:1011600000230025002040F66A16B14200D100BFDE
:10117000C1F3421501F01F03012606FA03F3012D06
:1011800002D19689334006E0022D02D1168A3340FF
:1011900001E0968A33400C12012606FA04F4168800
:1011A000344013B10CB1012000E0002070BDF0B557
:1011B0000346002400260025002040F66A17B942A5
:1011C00000D100BF1846C1F3421401F01F060127E9
:1011D00007FA06F5012C01D10C3004E0022C01D1F4
:1011E000103000E014301AB107682F43076002E0A6
:1011F0000768AF430760F0BD2DE9F04786B00546AC
:101200000E460024A24600BFA1460027B08900B1C7
:1012100000BF2F462C8A4CF6FF700440F088044330
:101220002C82AC894EF6F3100440B0883189084313
:10123000718908430443AC81AC8A4FF6FF400440F7
:10124000B0890443AC8201A8FFF7D4FB1F48874252
:1012500002D1DDF810A001E0DDF80CA0A88900F4AF
:10126000004040B10AEBCA0000EB0A1031684900A7
:10127000B0FBF1F807E00AEBCA0000EB0A10316896
:101280008900B0FBF1F86420B8FBF0F004012009FC
:10129000642101FB1089A88900F4004040B132208C
:1012A00000EBC900B0FBF1F000F00700044308E0D8
:1012B000322000EB09106421B0FBF1F000F00F00C8
:1012C00004432C8106B0BDE8F087000000380140DF
:1012D00001468888C0F30800704700BFFEE702E0BF
:1012E00008C8121F08C1002AFAD1704770470020B1
:1012F00001E001C1121F002AFBD17047FFF7D4F9AA
:10130000FFF7E4FBFFF7E0FA15E18B48808A8B4991
:10131000088008460088D8B989480068FEF7CAFFE7
:101320000446FFF78DFA87480068FEF7C3FF0446BE
:10133000FFF7A8FA84480068FEF7BCFF0446FFF7F1
:101340003BFA82480068FEF7B5FF0446FFF756FAFD
:101350007A480088092819D17D480068B42814DC2F
:101360007B480068401C7A49086008460068FEF720
:10137000A1FF0446FFF764FA7548006870490860E9
:1013800074480078FEF7FFFFD4E0D4E06B48008893
:1013900002281AD16E48006810F1100F14DB6C4857
:1013A0000068401E6A49086008460068FEF782FF30
:1013B0000446FFF745FA66480068614908606548D9
:1013C0000078FEF7E0FFB5E0B5E05C480088032850
:1013D00019D161480068B42814DC5F480068401CDB
:1013E0005D49086008460068FEF764FF0446FFF7A1
:1013F00049FA594800685349086056480078FEF792
:10140000C2FF97E097E04D48008804281AD152485F
:10141000006810F1100F14DB4F480068401E4E4961
:10142000086008460068FEF745FF0446FFF72AFA01
:10143000494800684349086046480078FEF7A3FF22
:1014400078E078E03D480088052819D143480068D5
:10145000B42814DC41480068401C40490860084634
:101460000068FEF727FF0446FFF7A6F93B4800682F
:101470003549086037480078FEF785FF5AE05AE0A2
:101480002E48008806281AD13448006810F1100F41
:1014900014DB32480068401E304908600846006886
:1014A000FEF708FF0446FFF787F92C480068264935
:1014B000086028480078FEF766FF3BE03BE01F48E5
:1014C0000088072819D12648006810F1100F13DB97
:1014D00023480068401E2249086008460068FEF75D
:1014E000E9FE0446FFF78AF91D48006817490860BD
:1014F0001420FEF748FF1DE01DE010480088082872
:1015000018D117480068B42813DC15480068401C3F
:101510001349086008460068FEF7CCFE0446FFF752
:101520006DF90F480068094908601420FEF72BFF89
:1015300000E000E000BFE8E64000002000000020DE
:101540001C000020140000201800002020000020B3
:101550000C000020020000200400002008000020F1
:10156000100000208415000800000020400000004A
:10157000DE120008C415000840000020200400000E
:10158000EE12000800001900540000007500000071
:101590004E000000360000005400000075000000FE
:1015A0004E000000360000000000000000000000B7
:1015B00000000000010203040102030406070809F9
:0415C0000204060813
:0400000508000101ED
:00000001FF
